:020000040000FA
:1000000068020010B5020000BD020000BF0200003F
:10001000C1020000C3020000C50200000000000091
:10002000000000000000000000000000C702000007
:10003000C902000000000000CB020000CD02000059
:10004000CF020000CF020000CF020000CF0200006C
:10005000CF020000CF020000CF020000CF0200005C
:10006000CF020000CF020000CF020000CF0200004C
:10007000CF020000CF020000CF020000CF0200003C
:10008000CF020000CF020000CF020000CF0200002C
:10009000CF020000CF020000CF020000CF0200001C
:1000A000CF020000CF020000CF020000CF0200000C
:1000B000CF020000CF020000CF020000CF020000FC
:1000C000CF020000CF020000CF02000000F002F8D3
:1000D00000F03AF80AA090E8000C82448344AAF1A8
:1000E0000107DA4501D100F02FF8AFF2090EBAE8A6
:1000F0000F0013F0010F18BFFB1A43F0010318475C
:10010000040C0000240C0000103A24BF78C878C109
:10011000FAD8520724BF30C830C144BF04680C600D
:10012000704700000023002400250026103A28BF55
:1001300078C1FBD8520728BF30C148BF0B60704759
:100140001FB51FBD10B510BD00F0C9FA1146FFF76D
:10015000F7FF00F02AF800F0E7FA03B4FFF7F2FF28
:1001600003BC00F0EBFA00002DE9F84F04460D4601
:100170000022494B2046294600F0F2FA06460F4677
:100180004648006800F071FC804632463B4600F06D
:10019000BBFC824600F03CFC009000BF0098411E72
:1001A00000910028FAD1BDE8F88F3D48006C20F09E
:1001B00015003B4908643B48006940F00400394998
:1001C00008610846006920F00800086102203649ED
:1001D000C8604002C86449F6404088614010086227
:1001E000052008650220486148600920486051E008
:1001F0002B48406D00F0010098B12B49096A01F1CC
:10020000640000F032FC04460022284B00F040FC61
:1002100004D22548006A6430234908620420224938
:1002200008651F48406D00F0040090B11E48006A48
:1002300064381D49096A884208D21B48006A64383C
:1002400020B11948006A6438174908620420164929
:1002500008651348406D00F01000B8B112484068BE
:1002600018B909201049486009E000BF0E488068AD
:100270000D49096A8842F9D300200B49486000BF44
:100280000748406D00F010000028F9D1002008490F
:10029000FFF76AFFACE700000088B34000000010E1
:1002A00000C0092000C00240008001400088E340F7
:1002B000000034400948804709480047FEE7FEE750
:1002C000FEE7FEE7FEE7FEE7FEE7FEE7FEE7FEE706
:1002D00004480549034A054B704700009904000093
:1002E000CD000000680000106802001068000010D7
:1002F000704770477047704700000000FFFFFFFF26
:100300002DE9F047B3480068C0F3016003287DD1B0
:10031000B0488430006800F0030030B1012830D0CC
:10032000022859D003282BD100E000BFA94800685B
:10033000C0F30740441C0221A6488838D0F8880042
:10034000C0F30E00401CA1FB0001A34B4FF0000CBA
:10035000A0FB037901FB039100FB0C1122466346CD
:10036000384600F045F905469A487C300068C0B22E
:10037000441C22460023284600F03AF997490860B9
:1003800056E094480068C0F30740441C022191489D
:100390008838D0F88800C0F30E00401CA1FB001084
:1003A0008F4A4FF0000CA1FB027900FB029001FB89
:1003B0000C0122466346384600F01AF90546854886
:1003C0007C300068C0B2441C22460023284600F05E
:1003D0000FF9824908602BE07E480068C0F30740AF
:1003E000441C02217B488838D0F88800C0F30E00F6
:1003F000401CA1FB00124FF400400023A1FB007938
:1004000002FB009001FB0301224600E011E03846A8
:1004100000F0EEF805466F487C300068C0B2441C1E
:1004200022460023284600F0E3F86C49086000BF2C
:1004300030E068488430006800F0030030B10128E3
:1004400010D0022819D0032823D100E000BF614852
:100450007C300068C0B2401C5F49B1FBF0F05F49DE
:10046000086016E05B487C300068C0B2401C5C4904
:10047000B1FBF0F0594908600BE056487C30006849
:10048000C0B2401C4FF40041B1FBF0F0534908608A
:1004900000BF00BFBDE8F0872020524908604D48EA
:1004A0008838D0F8A00100F0200030B100BF4D48DE
:1004B000006800F040000028F9D0032045497C3155
:1004C0000860002043498839C1F8A80145490C312A
:1004D000086001203F498431086043483D49091FB5
:1004E0000860AA203B49091D0860552008600120CA
:1004F000384908390860AA203649091D0860552086
:1005000034498839C1F88C0000BF3248006800F0D7
:1005100080600028F9D003202E4908390860AA20FD
:100520002C498839C1F88C0055202A49091D0860DA
:1005300000BF2848006800F04070B0F1407FF8D15B
:10054000232024491C310860AA2022498839C1F897
:10055000AC0055201F492431086001201D49183185
:100560000860AA201B4924310860552019498839A0
:10057000C1F8AC0000BF17482030006800F480606C
:100580000028F8D00320134918310860AA20114927
:100590008839C1F8AC0055200E492431086000BFED
:1005A0000C482030006800F44070B0F5407FF7D16F
:1005B0000E4808493C310860002006498839C1F8D6
:1005C000C8010846006820F4704040F4804008608C
:1005D0007047000088C00F4000093D000000001077
:1005E000001BB700A0C10F4063000500DE87280490
:1005F00053EA020C00F069802DE9F04B4FF0000641
:10060000002B1FBFB3FA83F503FA05F424FA05F6AD
:100610005E4012BF1643B2FA82F502FA05F4C5F144
:1006200020051EBF22FA05FC44EA0C04203556EAD8
:10063000044C4FEA144418BF641C4FF000084FF0FC
:100640000009904271EB030C39D3002919BFB1FAAC
:1006500081F701FA07F6B0FA80F700FA07F6C7F15A
:1006600020071EBF20FA07FC46EA0C062037B6FB1F
:10067000F4FCA7EB0507103F07F01F0BCBF120069A
:100680000CFA0BFB2CFA06F644BFB3460026202FCB
:10069000A4BF5E464FF0000B5BEA060C08BF4FF0AC
:1006A000010B19EB0B09ABFB027C48EB0608C01BE6
:1006B00006FB02CC0BFB03CC71EB0C01C1E70B4634
:1006C000024641464846BDE8F08B13B54FF00000A6
:1006D0004FF00001AFF30080BDE81C407047754645
:1006E00000F028F8AE4605006946534620F00700A2
:1006F000854618B020B5FFF7EBFDBDE820404FF070
:1007000000064FF000074FF000084FF0000B21F0FB
:100710000701AC46ACE8C009ACE8C009ACE8C009C8
:10072000ACE8C0098D4670470446AFF30080204610
:10073000FFF713FD0048704704000010014918201E
:10074000ABBEFEE726000200491058BFC1F1404190
:100750005B1058BFC3F140438B42EFF300807047FA
:100760002DE9C04130B4DFF8A0C23CEA111418BF33
:100770003CEA131400F0EC8081EA03051CEA111432
:1007800044EAD57418BF1CEA131500F0C780A4EB27
:1007900005044FF0004545EAC12145EAC32341EA7B
:1007A000505143EA525304F17F74994204F50034E6
:1007B0004FEAC0204FEAC22208BF904200F09C805E
:1007C0004FEA13650FF24016765D4FEA134506FBBC
:1007D00005F7C7F1807706FB07F74FEAD737A7FB86
:1007E00003687642C8F58038A7FB06CE38BFA8F16B
:1007F000010807FB08E64FF0000EA6FB028CE6FBA3
:1008000003CEDCF1000CCEF1004E38BFAEF1010E8C
:10081000A6FB0C584FF000074FF00005E6FB0E87D3
:10082000A1FB08C6A0FB07CE16EB0E0645F100059E
:10083000E1FB076515F1E04E7EBFA4F580345FEA69
:1008400046066D4116F1800745F100054FEA17276E
:100850004FEA066647EA0567A6F1DE46B6F1805F15
:100860004FEA15251FD9384624F0010C05EBC47159
:10087000BCF1FE6F01EB0C1102D8F0BCBDE80081A9
:1008800024425CBF01F5801E9EEAC47F02D4F0BC06
:10089000BDE80081244238D4F0BCA1F1C041BDE8DC
:1008A000004100F029BA4FEAD22242EA43524FEA0D
:1008B000D323A7FB02864FEAD02040EA415007FB32
:1008C00003661EEA0E0F4FEAD12105FB026658BFF0
:1008D000A6EB0056B6EB00564FEA520E4EEAC37E28
:1008E00018EB0E0E56EB530EBDD518EB02085E4109
:1008F0007F1C55F10005B6E74FF480154FF0000757
:100900004FF000064FF00008ADE7F0BC4FF00000DC
:1009100001F1C04101F00041BDE8008111EA0C1F66
:100920000CEA131500D00CE013EA0C1F00F0258030
:100930004FF00000F0BC81EA030101F00041BDE886
:100940000081F0BC81EA0301BDE8004100F0D4B9A8
:10095000F0BCBDE8004170B500F080F9097EFC3EB6
:1009600000F007B881EA03014FF0000001F00041F8
:10097000704781EA030100F0BFB9F0BC4FF00000FE
:100980002249BDE800417047FFFDFBF9F7F5F4F29D
:10099000F0EEEDEBE9E8E6E4E3E1E0DEDDDBDAD81A
:1009A000D7D5D4D3D1D0CFCDCCCBCAC8C7C6C5C478
:1009B000C2C1C0BFBEBDBCBBBAB9B8B7B6B5B4B38F
:1009C000B2B1B0AFAEADACABAAA9A8A8A7A6A5A47A
:1009D000A3A3A2A1A09F9F9E9D9C9C9B9A9999983E
:1009E0009797969595949393929191908F8F8E8EE1
:1009F0008D8C8C8B8B8A898988888787868585846E
:100A000084838382828181800000FF070000F87F59
:100A10004FEA1153A3F58063D3F11E03A8BFD3F1AE
:100A2000200C08DB4FF0004242EAC12252EA505249
:100A300032FA03F0704709420BD4102BC4BF0020D8
:100A4000704703F5787CBCF1FF3F05D04FF0FF30D5
:100A500070474FF00000704770B500F0FFF800BF1E
:100A60004992248000207047F0E7B0FA80F310FA32
:100A700003F10AD0C3F11D0303F580634FEA41502F
:100A80004FEA035202EBD12170474FF0000070474C
:100A900051EA030C17D41CF5801F58BFBCF5801F0A
:100AA00000F10680994218BF704708BF9042704716
:100AB00007D711F5801F58BF13F5801F19D499422D
:100AC0007047894270471CF5801F08D5BCF5801F10
:100AD000F7D58B4218BF704708BF824270474FF46A
:100AE000001C1CEB410F38BF1CEB430F01D28B42A3
:100AF000704770B500F0B2F8922449004FF00051F1
:100B00004FF08053FFF720BEDFF848C170B51CEAF4
:100B1000111E1EBF1CEA13159EEA0C0F95EA0C0F5E
:100B200000F06F8081EA030423EA4C134EEAD47E7E
:100B300021EA4C1141F4801143F48013AE44A1FB2F
:100B4000024CA0FB0365AEF17F7E361955EB0C0518
:100B5000A1FB034C4CF10003A0FB021C16EB0C069E
:100B6000654153F10003094218BF46F0010613F432
:100B7000007F0BD14FEA03314FEA0530340341EADD
:100B8000155140EA16506FF003020AE04FEAC32104
:100B90004FEAC520F40241EA555140EA56506FF041
:100BA000020202EB2E4201EB025585EACE710AD019
:100BB0005FEA440C18BF24F0004450F1000041F1FA
:100BC000000120EAD47040F2FE7C624500D270BD84
:100BD000A84214BF4FF080444FF04044002E08BF9D
:100BE0000024BEF1806FA8BFA1F1C041BDE87040F4
:100BF00080F282804FF0000001F1C04101F000411D
:100C000070479EEA0C0F0CEA131518BF95EA0C0FFB
:100C100006D04FF0000081EA030E0EF0004170BDD7
:100C200000F01CF88900013E00F007B800F009B898
:100C30004FEA430C5FEA5C5C08D081EA030100F0F4
:100C40005BB84FEA410C5FEA5C5CF6D14FF0000004
:100C5000014970470000FF070000F87F0EF1020E07
:100C60002EF0030E5EF8046B364205D4012A43EBE6
:100C7000030515F5001F12D8012841EB010C1CF5E6
:100C8000001F0CD80ED14FEAD17C15F5001F0CEBDC
:100C90004C0C0CF1020C08BF4CEBD37C04E04FF081
:100CA000080C01E04FEAD37C0CEB4C0526FA05F664
:100CB00006F00706B6F1040C06D20EEB860CBDE872
:100CC00070404CF0010C6047DFE80CF0090B0202A9
:100CD0004FF000414FF00000A1F5002170BD194612
:100CE0001046012851EB010418BFD4F5001484BF4D
:100CF000002001F0004170BD0808A0F500114FEA86
:100D000031017047240D00000000001004000000B5
:100D100008010000280D000004000010640200001B
:080D20002401000000E1F505CB
:04000005000000CD2A
:00000001FF
