:020000040000FA
:100000006802001069010000710100007301000026
:100010007501000077010000790100000000000078
:100020000000000000000000000000007B01000054
:100030007D010000000000007F0100008101000040
:1000400083010000830100008301000083010000A0
:100050008301000083010000830100008301000090
:100060008301000083010000830100008301000080
:100070008301000083010000830100008301000070
:100080008301000083010000830100008301000060
:100090008301000083010000830100008301000050
:1000A0008301000083010000830100008301000040
:1000B0008301000083010000830100008301000030
:1000C00083010000830100008301000000F002F8BA
:1000D00000F03AF80AA090E8000C82448344AAF1A8
:1000E0000107DA4501D100F02FF8AFF2090EBAE8A6
:1000F0000F0013F0010F18BFFB1A43F0010318475C
:100100005014000070140000103A24BF78C878C161
:10011000FAD8520724BF30C830C144BF04680C600D
:10012000704700000023002400250026103A28BF55
:1001300078C1FBD8520728BF30C148BF0B60704759
:100140001FB51FBD10B510BD00F0A6F81146FFF792
:10015000F7FF00F0FAF900F0C4F803B4FFF7F2FF7C
:1001600003BC00F059FF00000948804709480047D8
:10017000FEE7FEE7FEE7FEE7FEE7FEE7FEE7FEE757
:10018000FEE7FEE704480549034A054B70470000B7
:10019000C10E0000CD0000006800001068020010D1
:1001A0006800001053EA020C00F069802DE9F04B62
:1001B0004FF00006002B1FBFB3FA83F503FA05F4D6
:1001C00024FA05F65E4012BF1643B2FA82F502FA2F
:1001D00005F4C5F120051EBF22FA05FC44EA0C0413
:1001E000203556EA044C4FEA144418BF641C4FF003
:1001F00000084FF00009904271EB030C39D300293D
:1002000019BFB1FA81F701FA07F6B0FA80F700FAE0
:1002100007F6C7F120071EBF20FA07FC46EA0C06C6
:100220002037B6FBF4FCA7EB0507103F07F01F0BC8
:10023000CBF120060CFA0BFB2CFA06F644BFB346B2
:100240000026202FA4BF5E464FF0000B5BEA060C91
:1002500008BF4FF0010B19EB0B09ABFB027C48EB1D
:100260000608C01B06FB02CC0BFB03CC71EB0C0198
:10027000C1E70B46024641464846BDE8F08B13B540
:100280004FF000004FF00001AFF30080BDE81C40CC
:100290007047704770477047754600F029F8AE46C2
:1002A00005006946534620F00700854618B020B582
:1002B000FFF768FFBDE820404FF000064FF0000751
:1002C0004FF000084FF0000B21F00701AC46ACE8FE
:1002D000C009ACE8C009ACE8C009ACE8C0098D466B
:1002E00070470446AFF300802046FFF736FF00005A
:1002F000004870470400001070470000FFFFFFFF38
:100300002DE9F84F04460D460022B64B20462946FB
:1003100000F088FE06460F46B348006801F007F873
:10032000804632463B4601F015F8824600F0D2FF87
:10033000009000BF0098411E00910028FAD1BDE84E
:10034000F88F2DE9F04104460D469046A748806B92
:1003500094F82020012191400843A449886308466D
:10036000C06B24210A5D0121914008439F49C86365
:100370000846C06B28210A5D0121914008439B4932
:10038000C8630846C06B2C210A5D012191400843D7
:100390009649C86301222946204600F043FC934950
:1003A000896B08439149886301222946204600F061
:1003B00047FC8E49C96B08438C49C863404600F02E
:1003C000B6FF0646FFF79CFF8848C06B94F82020D4
:1003D0000121914008438549C8630846806B242168
:1003E0000A5D012191400843804988630846C06B3B
:1003F00028210A5D0121914008437C49C8630846D1
:10040000C06B2C210A5D0121914008437749C863E4
:10041000012205F10801204600F004FC7349896BB4
:10042000084372498863012205F10801204600F063
:1004300007FC6E49C96B08436C49C863404600F02D
:1004400076FF0646FFF75CFF6848C16B94F82020F2
:100450000120904001436548C163C06B24210A5DBF
:100460000121914008436149C8630846806B2821F7
:100470000A5D0121914008435C4988630846C06BCE
:100480002C210A5D0121914008435849C86301228B
:1004900005F11001204600F0C5FB5449896B084363
:1004A00052498863012205F11001204600F0C8FB83
:1004B0004E49C96B08434D49C863404600F037FFB9
:1004C0000646FFF71DFF4948C06B94F82020012124
:1004D000914008434549C8630846C06B24210A5D22
:1004E0000121914008434149C8630846C06B282157
:1004F0000A5D0121914008433C49C8630846806B6E
:100500002C210A5D0121914008433849886301226A
:1005100005F11801204600F085FB3449896B08433A
:1005200032498863012205F11801204600F088FB5A
:100530002E49C96B08432D49C863404600F0F7FEB9
:100540000646FFF7DDFEBDE8F081A6B013200E21C0
:1005500004221523CDE90132CDE903101720092328
:100560000F220A2100901EA800F050F80820162142
:1005700000220123CDE90232CDE90410122014211A
:1005800018231922CDE900101EA90EA800F04CF87E
:100590000EA800F0BBFA1549096A0843134908621E
:1005A00001201A99884001211C9A914008430F4963
:1005B000896B08430D49886301201D9988400043D9
:1005C0000A49C96B08430949C86306AA5821084665
:1005D00000F07DFB04E0012206A90EA8FFF7B1FEA2
:1005E000F9E700000088B3400000001000C00920B7
:1005F000F0B505AC94E8F010017042708370C470DF
:1006000005714671877180F807C0F0BDF0B505AC83
:1006100094E8F010016042608360C4600561466147
:100620008761C0F81CC0F0BD2DE9F04307AC94E829
:10063000F010DDF83080D1F80090C0F80090D1F8CB
:100640000490C0F80490D1F80890C0F80890D1F850
:100650000C90C0F80C90D1F81090C0F81090D1F820
:100660001490C0F81490D1F81890C0F81890D1F8F0
:100670001C90C0F81C90026243628462C5620663EB
:100680004763C0F838C0C0F83C80BDE8F08307B5C8
:1006900085B007982D384D287CD2DFE800F0FA7B32
:1006A0007B273542505E6D7C8997A47B7B7B7B7B6F
:1006B0007B7BB3C2D1FCF8F7F6F57BF47BF37B7B55
:1006C0007BF2F17BF07B7BEF7BEEED7B7B7B7B7BBF
:1006D0007B7BB2C1D0FBEBEAE9E87BE77BE67B7B87
:1006E0007BE5E47BE37B7BE27BE1E0000021012210
:1006F00006980192CDE9022113461146009204901A
:100700000598FFF775FFA5E1002106980191029178
:10071000CDE9031001231A4600910598FFF768FF01
:1007200098E1012100220698CDE90112CDE90310DC
:1007300013460A4600910598FFF75AFF8AE1012106
:10074000002206980192CDE902210B460A4600914B
:1007500004900598FFF74CFF7CE1012100230698E7
:10076000CDE901310093CDE903100B460A46002183
:100770000598FFF73DFF6DE1012100230698CDE9C3
:100780000131CDE903100B46002200910598FFF7D7
:100790002FFF5FE151E10121069801910291CDE91E
:1007A00003100B46002200910598FFF721FF51E14D
:1007B0000021069801910291CDE9031001231A4608
:1007C000009119460598FFF713FF43E101210698B0
:1007D00001910291CDE903100B460A46009105985C
:1007E000FFF706FF36E1012100230698CDE901312C
:1007F000CDE903100B460A4600910598FFF7F8FE75
:1008000028E100BF0121069801910291CDE9031072
:1008100000200B460A4600900598FFF7E9FE19E113
:1008200000BF0121069801910291CDE903100B460A
:100830000022009111460598FFF7DAFE0AE100BF99
:100840000021012206980192CDE902210B46009277
:1008500004900A4601210598FFF7CAFEFAE0DCE0A1
:10086000CBE0BCE0ACE09CE08CE07CE06CE05BE0EA
:100870004BE02DE01EE00DE0D0E0BFE0B0E0A0E0F6
:1008800090E080E070E060E04FE03FE021E012E0C7
:1008900001E02CE000BF012100220698CDE9011201
:1008A000CDE903100B460A46009100210598FFF799
:1008B0009FFECFE000BF0121069801910291CDE992
:1008C000031000231A4600910598FFF791FEC1E03E
:1008D00000BF0121069801910291CDE9031000208B
:1008E0000346024600900598FFF782FEB2E0012120
:1008F000002206980192CDE902211346114600928A
:1009000004900598FFF774FEA4E000BF01210023C6
:100910000698CDE90131CDE903100B460A46009156
:100920000598FFF765FE95E000BF0121069801914B
:100930000291CDE9031000200B46024601460090CB
:100940000598FFF755FE85E000BF0021069801914C
:100950000291CDE90310012003460246009005985C
:10096000FFF746FE76E000BF0021012206980192C3
:10097000CDE902210B46009204900A460598FFF744
:1009800037FE67E000BF0121069801910291CDE991
:100990000310002003460A4600900598FFF728FE42
:1009A00058E000BF012100230698CDE901310093F2
:1009B000CDE903100B460A460598FFF719FE49E0FA
:1009C00000BF012100230698CDE90131CDE90310D4
:1009D0000B46002200910598FFF70AFE3AE000BF9F
:1009E0000021012206980192CDE9022113460092CE
:1009F00004900598FFF7FCFD2CE000BF012106984C
:100A000001910291CDE9031000200B460A460146F0
:100A100000900598FFF7ECFD1CE000BF01210023CA
:100A20000698CDE90131CDE903100B460A46009145
:100A300000210598FFF7DCFD0CE0002106980191EC
:100A40000291CDE903100B460A4600910598FFF785
:100A5000CFFD00BF00BF08B000BD70B505460E4613
:100A60001446102C27D2DFE804F008090A0B0C0DFD
:100A70000E0F1011191A1B1C1D1E00BF00BF00BF56
:100A800000BF00BF00BF00BF00BF00BF04F13000C7
:100A9000C2B231462846FFF7FAFD12E000BF00BFA0
:100AA00000BF00BF00BF04F13700C2B23146284684
:100AB000FFF7EDFD05E0002231462846FFF7E7FD90
:100AC00000BF00BF70BD10B501460B7801229A40EF
:100AD0000C790123A3401A430C7A0123A3401A4343
:100AE0000C7B0123A3401A430C7C0123A3401A432F
:100AF0000C7D0123A3401A430C7E0123A3401A431B
:100B00000C7F0123A34042EA030010BD10B501464B
:100B10000B7801229A400C790123A3401A430C7AE6
:100B20000123A3401A430C7B0123A3401A430C7CEE
:100B30000123A3401A430C7D0123A3401A430C7EDA
:100B40000123A3401A430C7F0123A3401A4391F8C9
:100B500020400123A3401A4324235C5C0123A340CB
:100B60001A4328235C5C0123A3401A432C235C5CBA
:100B70000123A3401A4311F8304F0123A3401A4325
:100B80000C790123A3401A430C7A0123A3401A4392
:100B90000C7B30390123A34042EA030010BD30B57D
:100BA00002460B781BB114780123A34000E0002318
:100BB0004C781CB115790124AC4000E0002423439B
:100BC0008C781CB1157A0124AC4000E0002423434A
:100BD000CC781CB1157B0124AC4000E000242343F9
:100BE0000C791CB1157C0124AC4000E000242343A7
:100BF0004C791CB1157D0124AC4000E00024234356
:100C00008C791CB1157E0124AC4000E00024234304
:100C1000CC791CB1157F0124AC4000E0002443EAEC
:100C2000040030BD70B505460E4614461CB128467A
:100C3000FFF749FF70BD31462846FFF7B0FFF9E7DF
:100C400070B505460E46144624B131462846FFF7D6
:100C5000A6FF70BD2846FFF736FFFAE770B50446D9
:100C60000D464FF47A70B4FBF0F00A21B0FBF1F2BC
:100C700001FB1206324600212846FFF7EEFE6420F3
:100C8000B4FBF0F00A21B0FBF1F201FB1206324690
:100C9000002105F10800FFF7E0FE0A20B4FBF0F0A8
:100CA0000A21B0FBF1F201FB12063246002105F1E8
:100CB0001000FFF7D2FE0A20B4FBF0F100FB114652
:100CC0003246002105F11800FFF7C7FE70BDF0B5F0
:100CD00005460E4614460A20B5FBF0F73A460021B9
:100CE0002046FFF7BAFE0A20B5FBF0F100FB1157D2
:100CF0003A46002104F10800FFF7AFFE0A20B6FBD8
:100D0000F0F73A46002104F11000FFF7A6FE0A2092
:100D1000B6FBF0F100FB11673A46002104F1180020
:100D2000FFF79BFEF0BD00002DE9F047B3480068D7
:100D3000C0F3016003287DD1B0488430006800F022
:100D4000030030B1012830D0022859D003282BD11C
:100D500000E000BFA9480068C0F30740441C02211E
:100D6000A6488838D0F88800C0F30E00401CA1FBCC
:100D70000001A34B4FF0000CA0FB037901FB039192
:100D800000FB0C11224663463846FFF70BFA054676
:100D90009A487C300068C0B2441C22460023284692
:100DA000FFF700FA9749086056E094480068C0F3DE
:100DB0000740441C022191488838D0F88800C0F3CD
:100DC0000E00401CA1FB00108F4A4FF0000CA1FB4D
:100DD000027900FB029001FB0C0122466346384673
:100DE000FFF7E0F9054685487C300068C0B2441C36
:100DF000224600232846FFF7D5F9824908602BE0F8
:100E00007E480068C0F30740441C02217B488838B4
:100E1000D0F88800C0F30E00401CA1FB00124FF474
:100E200000400023A1FB007902FB009001FB0301BD
:100E3000224600E011E03846FFF7B4F905466F4856
:100E40007C300068C0B2441C224600232846FFF7CD
:100E5000A9F96C49086000BF30E068488430006838
:100E600000F0030030B1012810D0022819D0032867
:100E700023D100E000BF61487C300068C0B2401C54
:100E80005F49B1FBF0F05F49086016E05B487C30D9
:100E90000068C0B2401C5C49B1FBF0F059490860E1
:100EA0000BE056487C300068C0B2401C4FF4004153
:100EB000B1FBF0F05349086000BF00BFBDE8F08708
:100EC0002020524908604D488838D0F8A00100F031
:100ED000200030B100BF4D48006800F040000028FD
:100EE000F9D0032045497C31086000204349883906
:100EF000C1F8A80145490C31086001203F498431FF
:100F0000086043483D49091F0860AA203B49091D64
:100F10000860552008600120384908390860AA2077
:100F20003649091D0860552034498839C1F88C00BC
:100F300000BF3248006800F080600028F9D003202C
:100F40002E4908390860AA202C498839C1F88C003C
:100F500055202A49091D086000BF2848006800F094
:100F60004070B0F1407FF8D1232024491C31086043
:100F7000AA2022498839C1F8AC0055201F492431E4
:100F8000086001201D4918310860AA201B4924313E
:100F90000860552019498839C1F8AC0000BF1748CE
:100FA0002030006800F480600028F8D00320134946
:100FB00018310860AA2011498839C1F8AC005520C1
:100FC0000E492431086000BF0C482030006800F44E
:100FD0004070B0F5407FF7D10E4808493C310860B9
:100FE000002006498839C1F8C8010846006820F485
:100FF000704040F4804008607047000088C00F4097
:1010000000093D0000000010001BB700A0C10F4008
:1010100063000500DE87280401491820ABBEFEE707
:10102000260002002DE9C04130B4DFF8A0C23CEA3E
:10103000111418BF3CEA131400F0EC8081EA030598
:101040001CEA111444EAD57418BF1CEA131500F009
:10105000C780A4EB05044FF0004545EAC12145EAED
:10106000C32341EA505143EA525304F17F74994239
:1010700004F500344FEAC0204FEAC22208BF904274
:1010800000F09C804FEA13650FF24016765D4FEA40
:10109000134506FB05F7C7F1807706FB07F74FEA14
:1010A000D737A7FB03687642C8F58038A7FB06CE82
:1010B00038BFA8F1010807FB08E64FF0000EA6FBB9
:1010C000028CE6FB03CEDCF1000CCEF1004E38BF03
:1010D000AEF1010EA6FB0C584FF000074FF00005D3
:1010E000E6FB0E87A1FB08C6A0FB07CE16EB0E069B
:1010F00045F10005E1FB076515F1E04E7EBFA4F563
:1011000080345FEA46066D4116F1800745F100051F
:101110004FEA17274FEA066647EA0567A6F1DE465B
:10112000B6F1805F4FEA15251FD9384624F0010C2F
:1011300005EBC471BCF1FE6F01EB0C1102D8F0BCE1
:10114000BDE8008124425CBF01F5801E9EEAC47F99
:1011500002D4F0BCBDE80081244238D4F0BCA1F137
:10116000C041BDE8004100F0EDB94FEAD22242EAA9
:1011700043524FEAD323A7FB02864FEAD02040EA2E
:10118000415007FB03661EEA0E0F4FEAD12105FB13
:10119000026658BFA6EB0056B6EB00564FEA520E59
:1011A0004EEAC37E18EB0E0E56EB530EBDD518EB70
:1011B00002085E417F1C55F10005B6E74FF480152B
:1011C0004FF000074FF000064FF00008ADE7F0BC0D
:1011D0004FF0000001F1C04101F00041BDE8008185
:1011E00011EA0C1F0CEA131500D00CE013EA0C1FD7
:1011F00000F025804FF00000F0BC81EA030101F00F
:101200000041BDE80081F0BC81EA0301BDE8004176
:1012100000F098B9F0BCBDE8004170B500F044F9A9
:10122000097EFC3E00F007B881EA03014FF00000A0
:1012300001F00041704781EA030100F083B9F0BC7E
:101240004FF000002249BDE800417047FFFDFBF967
:10125000F7F5F4F2F0EEEDEBE9E8E6E4E3E1E0DEE9
:10126000DDDBDAD8D7D5D4D3D1D0CFCDCCCBCAC85B
:10127000C7C6C5C4C2C1C0BFBEBDBCBBBAB9B8B782
:10128000B6B5B4B3B2B1B0AFAEADACABAAA9A8A875
:10129000A7A6A5A4A3A3A2A1A09F9F9E9D9C9C9B43
:1012A0009A999998979796959594939392919190EE
:1012B0008F8F8E8E8D8C8C8B8B8A8989888887877F
:1012C0008685858484838382828181800000FF07F4
:1012D0000000F87F4FEA1153A3F58063D3F11E039A
:1012E000A8BFD3F1200C08DB4FF0004242EAC12234
:1012F00052EA505232FA03F0704709420BD4102BD5
:10130000C4BF0020704703F5787CBCF1FF3F05D0D7
:101310004FF0FF3070474FF00000704770B500F09D
:10132000C3F800BF4992248000207047F0E7B0FA6C
:1013300080F310FA03F10AD0C3F11D0303F58063B3
:101340004FEA41504FEA035202EBD12170474FF070
:1013500000007047DFF848C170B51CEA111E1EBFBF
:101360001CEA13159EEA0C0F95EA0C0F00F06F8033
:1013700081EA030423EA4C134EEAD47E21EA4C119D
:1013800041F4801143F48013AE44A1FB024CA0FB56
:101390000365AEF17F7E361955EB0C05A1FB034CBE
:1013A0004CF10003A0FB021C16EB0C06654153F147
:1013B0000003094218BF46F0010613F4007F0BD169
:1013C0004FEA03314FEA0530340341EA155140EA50
:1013D00016506FF003020AE04FEAC3214FEAC5201E
:1013E000F40241EA555140EA56506FF0020202EB16
:1013F0002E4201EB025585EACE710AD05FEA440C19
:1014000018BF24F0004450F1000041F1000120EA2F
:10141000D47040F2FE7C624500D270BDA84214BF79
:101420004FF080444FF04044002E08BF0024BEF12E
:10143000806FA8BFA1F1C041BDE8704080F28280FA
:101440004FF0000001F1C04101F0004170479EEAF9
:101450000C0F0CEA131518BF95EA0C0F06D04FF0CD
:10146000000081EA030E0EF0004170BD00F01CF890
:101470008900013E00F007B800F009B84FEA430CBC
:101480005FEA5C5C08D081EA030100F05BB84FEAD8
:10149000410C5FEA5C5CF6D14FF0000001497047F7
:1014A0000000FF070000F87F0EF1020E2EF0030E81
:1014B0005EF8046B364205D4012A43EB030515F5AB
:1014C000001F12D8012841EB010C1CF5001F0CD89D
:1014D0000ED14FEAD17C15F5001F0CEB4C0C0CF132
:1014E000020C08BF4CEBD37C04E04FF0080C01E089
:1014F0004FEAD37C0CEB4C0526FA05F606F00706FE
:10150000B6F1040C06D20EEB860CBDE870404CF030
:10151000010C6047DFE80CF0090B02024FF00041BC
:101520004FF00000A1F5002170BD194610460128BA
:1015300051EB010418BFD4F5001484BF002001F062
:10154000004170BD0808A0F500114FEA3101704755
:1015500070150000000000100400000008010000E9
:101560007415000004000010640200002401000053
:0415700000E1F5059C
:04000005000000CD2A
:00000001FF
