:020000040000FA
:1000000068020010FD010000050200000702000068
:10001000090200000B0200000D02000000000000B9
:100020000000000000000000000000000F020000BF
:100030001102000000000000130200001502000081
:10004000170200001702000017020000BB010000A9
:10005000170200001702000017020000170200003C
:10006000170200001702000017020000170200002C
:10007000170200001702000017020000170200001C
:10008000170200001702000017020000170200000C
:1000900017020000170200001702000017020000FC
:1000A00017020000170200001702000017020000EC
:1000B00017020000170200001702000017020000DC
:1000C00017020000170200001702000000F002F8FB
:1000D00000F03AF80AA090E8000C82448344AAF1A8
:1000E0000107DA4501D100F02FF8AFF2090EBAE8A6
:1000F0000F0013F0010F18BFFB1A43F0010318475C
:10010000AC010000CC010000103A24BF78C878C1CF
:10011000FAD8520724BF30C830C144BF04680C600D
:10012000704700000023002400250026103A28BF55
:1001300078C1FBD8520728BF30C148BF0B60704759
:100140001FB51FBD10B510BD00F079F81146FFF7BF
:10015000F7FF00F009F800F097F803B4FFF7F2FF9B
:1001600003BC00F09BF800002148006A40F000400A
:100170001F4908621F48006840F480001D49C439C7
:10018000C1F8C40002201C49486041F28830C860B0
:10019000400088610120486100208860032001211F
:1001A00081404209920002F1E022C2F8001100BF32
:1001B00001201149486000BFFEE701200E49086098
:1001C000002088600A48406B00F0004030B10848C9
:1001D000C06B40F000400649C86305E00448806BEE
:1001E00040F000400249886300200349886070475E
:1001F00000C00920C4C00F400000094009488047E2
:1002000009480047FEE7FEE7FEE7FEE7FEE7FEE7F8
:10021000FEE7FEE7FEE7FEE704480549034A054B13
:100220007047000099040000CD0000006800001035
:1002300068020010680000107047704770477546EC
:1002400000F028F8AE4605006946534620F0070046
:10025000854618B020B5FFF7DFFFBDE820404FF01E
:1002600000064FF000074FF000084FF0000B21F0A0
:100270000701AC46ACE8C009ACE8C009ACE8C0096D
:10028000ACE8C0098D4670470446AFF300802046B5
:10029000FFF763FF00487047040000100149182071
:1002A000ABBEFEE72600020070470000E00600003B
:1002B000000000100400000008010000E406000037
:1002C000040000106402000024010000000000008F
:1002D000000000000000000000000000000000001E
:1002E000000000000000000000000000000000000E
:1002F000000000000000000000000000FFFFFFFF02
:100300002DE9F047B3480068C0F3016003287DD1B0
:10031000B0488430006800F0030030B1012830D0CC
:10032000022859D003282BD100E000BFA94800685B
:10033000C0F30740441C0221A6488838D0F8880042
:10034000C0F30E00401CA1FB0001A34B4FF0000CBA
:10035000A0FB037901FB039100FB0C1122466346CD
:10036000384600F045F905469A487C300068C0B22E
:10037000441C22460023284600F03AF997490860B9
:1003800056E094480068C0F30740441C022191489D
:100390008838D0F88800C0F30E00401CA1FB001084
:1003A0008F4A4FF0000CA1FB027900FB029001FB89
:1003B0000C0122466346384600F01AF90546854886
:1003C0007C300068C0B2441C22460023284600F05E
:1003D0000FF9824908602BE07E480068C0F30740AF
:1003E000441C02217B488838D0F88800C0F30E00F6
:1003F000401CA1FB00124FF400400023A1FB007938
:1004000002FB009001FB0301224600E011E03846A8
:1004100000F0EEF805466F487C300068C0B2441C1E
:1004200022460023284600F0E3F86C49086000BF2C
:1004300030E068488430006800F0030030B10128E3
:1004400010D0022819D0032823D100E000BF614852
:100450007C300068C0B2401C5F49B1FBF0F05F49DE
:10046000086016E05B487C300068C0B2401C5C4904
:10047000B1FBF0F0594908600BE056487C30006849
:10048000C0B2401C4FF40041B1FBF0F0534908608A
:1004900000BF00BFBDE8F0872020524908604D48EA
:1004A0008838D0F8A00100F0200030B100BF4D48DE
:1004B000006800F040000028F9D0032045497C3155
:1004C0000860002043498839C1F8A80145490C312A
:1004D000086001203F498431086043483D49091FB5
:1004E0000860AA203B49091D0860552008600120CA
:1004F000384908390860AA203649091D0860552086
:1005000034498839C1F88C0000BF3248006800F0D7
:1005100080600028F9D003202E4908390860AA20FD
:100520002C498839C1F88C0055202A49091D0860DA
:1005300000BF2848006800F04070B0F1407FF8D15B
:10054000232024491C310860AA2022498839C1F897
:10055000AC0055201F492431086001201D49183185
:100560000860AA201B4924310860552019498839A0
:10057000C1F8AC0000BF17482030006800F480606C
:100580000028F8D00320134918310860AA20114927
:100590008839C1F8AC0055200E492431086000BFED
:1005A0000C482030006800F44070B0F5407FF7D16F
:1005B0000E4808493C310860002006498839C1F8D6
:1005C000C8010846006820F4704040F4804008608C
:1005D0007047000088C00F4000093D000000001077
:1005E000001BB700A0C10F4063000500DE87280490
:1005F00053EA020C00F069802DE9F04B4FF0000641
:10060000002B1FBFB3FA83F503FA05F424FA05F6AD
:100610005E4012BF1643B2FA82F502FA05F4C5F144
:1006200020051EBF22FA05FC44EA0C04203556EAD8
:10063000044C4FEA144418BF641C4FF000084FF0FC
:100640000009904271EB030C39D3002919BFB1FAAC
:1006500081F701FA07F6B0FA80F700FA07F6C7F15A
:1006600020071EBF20FA07FC46EA0C062037B6FB1F
:10067000F4FCA7EB0507103F07F01F0BCBF120069A
:100680000CFA0BFB2CFA06F644BFB3460026202FCB
:10069000A4BF5E464FF0000B5BEA060C08BF4FF0AC
:1006A000010B19EB0B09ABFB027C48EB0608C01BE6
:1006B00006FB02CC0BFB03CC71EB0C01C1E70B4634
:1006C000024641464846BDE8F08B13B54FF00000A6
:1006D0004FF00001AFF30080BDE81C407047000000
:0406E00000E1F5053B
:04000005000000CD2A
:00000001FF
